{
  "_format": "hh-sol-artifact-1",
  "contractName": "WavePortal",
  "sourceName": "contracts/WavePortal.sol",
  "abi": [
    {
      "inputs": [],
      "stateMutability": "nonpayable",
      "type": "constructor"
    },
    {
      "inputs": [],
      "name": "getAddressWaves",
      "outputs": [
        {
          "internalType": "uint256",
          "name": "",
          "type": "uint256"
        }
      ],
      "stateMutability": "view",
      "type": "function"
    },
    {
      "inputs": [],
      "name": "getTotalWaves",
      "outputs": [
        {
          "internalType": "uint256",
          "name": "",
          "type": "uint256"
        }
      ],
      "stateMutability": "view",
      "type": "function"
    },
    {
      "inputs": [],
      "name": "wave",
      "outputs": [],
      "stateMutability": "nonpayable",
      "type": "function"
    }
  ],
  "bytecode": "0x608060405234801561001057600080fd5b5061003c6040518060600160405280602581526020016109426025913961004160201b61024d1760201c565b6101c4565b6100dd8160405160240161005591906101a2565b6040516020818303038152906040527f41304fac000000000000000000000000000000000000000000000000000000007bffffffffffffffffffffffffffffffffffffffffffffffffffffffff19166020820180517bffffffffffffffffffffffffffffffffffffffffffffffffffffffff83818316178352505050506100e060201b60201c565b50565b60008151905060006a636f6e736f6c652e6c6f679050602083016000808483855afa5050505050565b600081519050919050565b600082825260208201905092915050565b60005b83811015610143578082015181840152602081019050610128565b83811115610152576000848401525b50505050565b6000601f19601f8301169050919050565b600061017482610109565b61017e8185610114565b935061018e818560208601610125565b61019781610158565b840191505092915050565b600060208201905081810360008301526101bc8184610169565b905092915050565b61076f806101d36000396000f3fe608060405234801561001057600080fd5b50600436106100415760003560e01c80630cef43f3146100465780636fe15b44146100645780639a2cdc081461006e575b600080fd5b61004e61008c565b60405161005b91906104ff565b60405180910390f35b61006c610152565b005b610076610202565b60405161008391906104ff565b60405180910390f35b600061010d6040518060400160405280601681526020017f2573206861732077617665642025642074696d6573210000000000000000000081525033600160003373ffffffffffffffffffffffffffffffffffffffff1673ffffffffffffffffffffffffffffffffffffffff168152602001908152602001600020546102e6565b600160003373ffffffffffffffffffffffffffffffffffffffff1673ffffffffffffffffffffffffffffffffffffffff16815260200190815260200160002054905090565b60016000808282546101649190610549565b9250508190555060018060003373ffffffffffffffffffffffffffffffffffffffff1673ffffffffffffffffffffffffffffffffffffffff16815260200190815260200160002060008282546101ba9190610549565b925050819055506102006040518060400160405280600d81526020017f257320686173207761766564210000000000000000000000000000000000000081525033610385565b565b60006102456040518060400160405280601781526020017f5765206861766520256420746f74616c20776176657321000000000000000000815250600054610421565b600054905090565b6102e3816040516024016102619190610638565b6040516020818303038152906040527f41304fac000000000000000000000000000000000000000000000000000000007bffffffffffffffffffffffffffffffffffffffffffffffffffffffff19166020820180517bffffffffffffffffffffffffffffffffffffffffffffffffffffffff83818316178352505050506104bd565b50565b6103808383836040516024016102fe9392919061069b565b6040516020818303038152906040527f07c81217000000000000000000000000000000000000000000000000000000007bffffffffffffffffffffffffffffffffffffffffffffffffffffffff19166020820180517bffffffffffffffffffffffffffffffffffffffffffffffffffffffff83818316178352505050506104bd565b505050565b61041d828260405160240161039b9291906106d9565b6040516020818303038152906040527f319af333000000000000000000000000000000000000000000000000000000007bffffffffffffffffffffffffffffffffffffffffffffffffffffffff19166020820180517bffffffffffffffffffffffffffffffffffffffffffffffffffffffff83818316178352505050506104bd565b5050565b6104b98282604051602401610437929190610709565b6040516020818303038152906040527f9710a9d0000000000000000000000000000000000000000000000000000000007bffffffffffffffffffffffffffffffffffffffffffffffffffffffff19166020820180517bffffffffffffffffffffffffffffffffffffffffffffffffffffffff83818316178352505050506104bd565b5050565b60008151905060006a636f6e736f6c652e6c6f679050602083016000808483855afa5050505050565b6000819050919050565b6104f9816104e6565b82525050565b600060208201905061051460008301846104f0565b92915050565b7f4e487b7100000000000000000000000000000000000000000000000000000000600052601160045260246000fd5b6000610554826104e6565b915061055f836104e6565b9250827fffffffffffffffffffffffffffffffffffffffffffffffffffffffffffffffff038211156105945761059361051a565b5b828201905092915050565b600081519050919050565b600082825260208201905092915050565b60005b838110156105d95780820151818401526020810190506105be565b838111156105e8576000848401525b50505050565b6000601f19601f8301169050919050565b600061060a8261059f565b61061481856105aa565b93506106248185602086016105bb565b61062d816105ee565b840191505092915050565b6000602082019050818103600083015261065281846105ff565b905092915050565b600073ffffffffffffffffffffffffffffffffffffffff82169050919050565b60006106858261065a565b9050919050565b6106958161067a565b82525050565b600060608201905081810360008301526106b581866105ff565b90506106c4602083018561068c565b6106d160408301846104f0565b949350505050565b600060408201905081810360008301526106f381856105ff565b9050610702602083018461068c565b9392505050565b6000604082019050818103600083015261072381856105ff565b905061073260208301846104f0565b939250505056fea264697066735822122070829f808b62647ea9bcce11443e337d618062ccb2f71b7c82551b4f09736b1f64736f6c634300080d0033596f20796f2c204920616d206120636f6e747261637420616e64204920616d20736d617274",
  "linkReferences": {},
  "deployedLinkReferences": {}
}